{
  "address": "0x2220f7dFB3902Cbaa06C69a24411698b18a8D023",
  "abi": [
    {
      "inputs": [
        {
          "internalType": "address",
          "name": "nftContractAddress",
          "type": "address"
        },
        {
          "internalType": "uint256",
          "name": "_maxStartTime",
          "type": "uint256"
        },
        {
          "internalType": "uint256",
          "name": "_maxDuration",
          "type": "uint256"
        },
        {
          "internalType": "uint256",
          "name": "_legendaryDuration",
          "type": "uint256"
        },
        {
          "internalType": "uint256",
          "name": "_epicDuration",
          "type": "uint256"
        }
      ],
      "stateMutability": "nonpayable",
      "type": "constructor"
    },
    {
      "anonymous": false,
      "inputs": [
        {
          "indexed": true,
          "internalType": "uint256",
          "name": "fundraisingId",
          "type": "uint256"
        },
        {
          "indexed": true,
          "internalType": "enum NftTypes.NftType",
          "name": "nftType",
          "type": "uint8"
        },
        {
          "indexed": false,
          "internalType": "uint256",
          "name": "newBasePrice",
          "type": "uint256"
        }
      ],
      "name": "BasePriceUpdated",
      "type": "event"
    },
    {
      "anonymous": false,
      "inputs": [
        {
          "indexed": true,
          "internalType": "uint256",
          "name": "fundraisingId",
          "type": "uint256"
        },
        {
          "indexed": true,
          "internalType": "address",
          "name": "user",
          "type": "address"
        },
        {
          "components": [
            {
              "internalType": "enum NftTypes.NftType",
              "name": "nftType",
              "type": "uint8"
            },
            {
              "internalType": "uint256",
              "name": "amount",
              "type": "uint256"
            }
          ],
          "indexed": false,
          "internalType": "struct FundraisingCenter.BuyAmount[]",
          "name": "amounts",
          "type": "tuple[]"
        }
      ],
      "name": "ContributionMade",
      "type": "event"
    },
    {
      "anonymous": false,
      "inputs": [
        {
          "indexed": true,
          "internalType": "uint256",
          "name": "fundraisingId",
          "type": "uint256"
        },
        {
          "indexed": true,
          "internalType": "address",
          "name": "moderator",
          "type": "address"
        },
        {
          "indexed": false,
          "internalType": "uint256",
          "name": "amount",
          "type": "uint256"
        }
      ],
      "name": "FundClaimed",
      "type": "event"
    },
    {
      "anonymous": false,
      "inputs": [
        {
          "indexed": true,
          "internalType": "uint256",
          "name": "fundraisingId",
          "type": "uint256"
        }
      ],
      "name": "FundraisingCancelled",
      "type": "event"
    },
    {
      "anonymous": false,
      "inputs": [
        {
          "indexed": true,
          "internalType": "uint256",
          "name": "fundraisingId",
          "type": "uint256"
        },
        {
          "indexed": true,
          "internalType": "address",
          "name": "moderator",
          "type": "address"
        },
        {
          "indexed": false,
          "internalType": "uint256",
          "name": "startTime",
          "type": "uint256"
        },
        {
          "indexed": false,
          "internalType": "uint256",
          "name": "duration",
          "type": "uint256"
        },
        {
          "indexed": false,
          "internalType": "uint256",
          "name": "targetAmount",
          "type": "uint256"
        }
      ],
      "name": "FundraisingCreated",
      "type": "event"
    },
    {
      "anonymous": false,
      "inputs": [
        {
          "indexed": false,
          "internalType": "uint256",
          "name": "newMaxDuration",
          "type": "uint256"
        }
      ],
      "name": "MaxDurationUpdated",
      "type": "event"
    },
    {
      "anonymous": false,
      "inputs": [
        {
          "indexed": false,
          "internalType": "uint256",
          "name": "newMaxStartTime",
          "type": "uint256"
        }
      ],
      "name": "MaxStartTimeUpdated",
      "type": "event"
    },
    {
      "anonymous": false,
      "inputs": [
        {
          "indexed": true,
          "internalType": "uint256",
          "name": "fundraisingId",
          "type": "uint256"
        },
        {
          "indexed": true,
          "internalType": "address",
          "name": "user",
          "type": "address"
        }
      ],
      "name": "NftClaimed",
      "type": "event"
    },
    {
      "anonymous": false,
      "inputs": [
        {
          "indexed": false,
          "internalType": "address",
          "name": "newNftContract",
          "type": "address"
        }
      ],
      "name": "NftContractUpdated",
      "type": "event"
    },
    {
      "anonymous": false,
      "inputs": [
        {
          "indexed": false,
          "internalType": "enum NftTypes.NftType",
          "name": "nftType",
          "type": "uint8"
        },
        {
          "indexed": false,
          "internalType": "uint256",
          "name": "newDuration",
          "type": "uint256"
        }
      ],
      "name": "NftDurationUpdated",
      "type": "event"
    },
    {
      "anonymous": false,
      "inputs": [
        {
          "indexed": true,
          "internalType": "uint256",
          "name": "fundraisingId",
          "type": "uint256"
        },
        {
          "indexed": true,
          "internalType": "address",
          "name": "user",
          "type": "address"
        },
        {
          "indexed": false,
          "internalType": "uint256",
          "name": "amount",
          "type": "uint256"
        }
      ],
      "name": "RefundClaimed",
      "type": "event"
    },
    {
      "anonymous": false,
      "inputs": [
        {
          "indexed": true,
          "internalType": "bytes32",
          "name": "role",
          "type": "bytes32"
        },
        {
          "indexed": true,
          "internalType": "bytes32",
          "name": "previousAdminRole",
          "type": "bytes32"
        },
        {
          "indexed": true,
          "internalType": "bytes32",
          "name": "newAdminRole",
          "type": "bytes32"
        }
      ],
      "name": "RoleAdminChanged",
      "type": "event"
    },
    {
      "anonymous": false,
      "inputs": [
        {
          "indexed": true,
          "internalType": "bytes32",
          "name": "role",
          "type": "bytes32"
        },
        {
          "indexed": true,
          "internalType": "address",
          "name": "account",
          "type": "address"
        },
        {
          "indexed": true,
          "internalType": "address",
          "name": "sender",
          "type": "address"
        }
      ],
      "name": "RoleGranted",
      "type": "event"
    },
    {
      "anonymous": false,
      "inputs": [
        {
          "indexed": true,
          "internalType": "bytes32",
          "name": "role",
          "type": "bytes32"
        },
        {
          "indexed": true,
          "internalType": "address",
          "name": "account",
          "type": "address"
        },
        {
          "indexed": true,
          "internalType": "address",
          "name": "sender",
          "type": "address"
        }
      ],
      "name": "RoleRevoked",
      "type": "event"
    },
    {
      "anonymous": false,
      "inputs": [
        {
          "indexed": true,
          "internalType": "uint256",
          "name": "fundraisingId",
          "type": "uint256"
        },
        {
          "indexed": true,
          "internalType": "address",
          "name": "user",
          "type": "address"
        },
        {
          "indexed": false,
          "internalType": "bool",
          "name": "isAdded",
          "type": "bool"
        }
      ],
      "name": "WhitelistUpdated",
      "type": "event"
    },
    {
      "inputs": [],
      "name": "DEFAULT_ADMIN_ROLE",
      "outputs": [
        {
          "internalType": "bytes32",
          "name": "",
          "type": "bytes32"
        }
      ],
      "stateMutability": "view",
      "type": "function"
    },
    {
      "inputs": [],
      "name": "MODERATOR_ROLE",
      "outputs": [
        {
          "internalType": "bytes32",
          "name": "",
          "type": "bytes32"
        }
      ],
      "stateMutability": "view",
      "type": "function"
    },
    {
      "inputs": [
        {
          "internalType": "uint256",
          "name": "fundraisingId",
          "type": "uint256"
        },
        {
          "internalType": "address",
          "name": "user",
          "type": "address"
        }
      ],
      "name": "addToWhitelist",
      "outputs": [],
      "stateMutability": "nonpayable",
      "type": "function"
    },
    {
      "inputs": [
        {
          "internalType": "uint256",
          "name": "fundraisingId",
          "type": "uint256"
        }
      ],
      "name": "cancelFundraising",
      "outputs": [],
      "stateMutability": "nonpayable",
      "type": "function"
    },
    {
      "inputs": [
        {
          "internalType": "uint256",
          "name": "fundraisingId",
          "type": "uint256"
        }
      ],
      "name": "claimAllNft",
      "outputs": [],
      "stateMutability": "nonpayable",
      "type": "function"
    },
    {
      "inputs": [
        {
          "internalType": "uint256",
          "name": "fundraisingId",
          "type": "uint256"
        }
      ],
      "name": "claimFund",
      "outputs": [],
      "stateMutability": "nonpayable",
      "type": "function"
    },
    {
      "inputs": [
        {
          "internalType": "uint256",
          "name": "fundraisingId",
          "type": "uint256"
        },
        {
          "internalType": "uint256",
          "name": "amount",
          "type": "uint256"
        }
      ],
      "name": "claimNft",
      "outputs": [],
      "stateMutability": "nonpayable",
      "type": "function"
    },
    {
      "inputs": [
        {
          "internalType": "uint256",
          "name": "fundraisingId",
          "type": "uint256"
        },
        {
          "internalType": "uint256",
          "name": "number",
          "type": "uint256"
        }
      ],
      "name": "contribute",
      "outputs": [],
      "stateMutability": "payable",
      "type": "function"
    },
    {
      "inputs": [
        {
          "internalType": "uint256",
          "name": "startTime",
          "type": "uint256"
        },
        {
          "internalType": "uint256",
          "name": "duration",
          "type": "uint256"
        },
        {
          "internalType": "uint256",
          "name": "targetAmount",
          "type": "uint256"
        },
        {
          "internalType": "uint256",
          "name": "basePriceLegendary",
          "type": "uint256"
        },
        {
          "internalType": "uint256",
          "name": "basePriceEpic",
          "type": "uint256"
        },
        {
          "internalType": "uint256",
          "name": "basePriceCommon",
          "type": "uint256"
        },
        {
          "internalType": "uint256",
          "name": "maxBuyAmountLegendary",
          "type": "uint256"
        },
        {
          "internalType": "uint256",
          "name": "maxBuyAmountEpic",
          "type": "uint256"
        }
      ],
      "name": "createFundraising",
      "outputs": [],
      "stateMutability": "nonpayable",
      "type": "function"
    },
    {
      "inputs": [
        {
          "internalType": "uint256",
          "name": "fundraisingId",
          "type": "uint256"
        },
        {
          "internalType": "uint256",
          "name": "number",
          "type": "uint256"
        },
        {
          "internalType": "uint256",
          "name": "timestamp",
          "type": "uint256"
        }
      ],
      "name": "determineBuyAmounts",
      "outputs": [
        {
          "components": [
            {
              "internalType": "enum NftTypes.NftType",
              "name": "nftType",
              "type": "uint8"
            },
            {
              "internalType": "uint256",
              "name": "amount",
              "type": "uint256"
            }
          ],
          "internalType": "struct FundraisingCenter.BuyAmount[]",
          "name": "amounts",
          "type": "tuple[]"
        },
        {
          "internalType": "uint256",
          "name": "totalValue",
          "type": "uint256"
        }
      ],
      "stateMutability": "view",
      "type": "function"
    },
    {
      "inputs": [
        {
          "internalType": "uint256",
          "name": "",
          "type": "uint256"
        }
      ],
      "name": "fundraisings",
      "outputs": [
        {
          "internalType": "address",
          "name": "moderator",
          "type": "address"
        },
        {
          "internalType": "uint256",
          "name": "startTime",
          "type": "uint256"
        },
        {
          "internalType": "uint256",
          "name": "targetTime",
          "type": "uint256"
        },
        {
          "internalType": "uint256",
          "name": "targetAmount",
          "type": "uint256"
        },
        {
          "internalType": "enum FundraisingCenter.Status",
          "name": "status",
          "type": "uint8"
        },
        {
          "internalType": "uint256",
          "name": "totalContribution",
          "type": "uint256"
        },
        {
          "internalType": "bool",
          "name": "fundClaimed",
          "type": "bool"
        }
      ],
      "stateMutability": "view",
      "type": "function"
    },
    {
      "inputs": [
        {
          "internalType": "uint256",
          "name": "fundraisingId",
          "type": "uint256"
        }
      ],
      "name": "getFundraising",
      "outputs": [
        {
          "components": [
            {
              "internalType": "address",
              "name": "moderator",
              "type": "address"
            },
            {
              "internalType": "uint256",
              "name": "startTime",
              "type": "uint256"
            },
            {
              "internalType": "uint256",
              "name": "targetTime",
              "type": "uint256"
            },
            {
              "internalType": "uint256",
              "name": "targetAmount",
              "type": "uint256"
            },
            {
              "internalType": "uint256",
              "name": "totalContribution",
              "type": "uint256"
            },
            {
              "internalType": "bool",
              "name": "fundClaimed",
              "type": "bool"
            }
          ],
          "internalType": "struct FundraisingCenter.FundraisingInfo",
          "name": "",
          "type": "tuple"
        }
      ],
      "stateMutability": "view",
      "type": "function"
    },
    {
      "inputs": [
        {
          "internalType": "uint256",
          "name": "fundraisingId",
          "type": "uint256"
        },
        {
          "internalType": "enum NftTypes.NftType",
          "name": "nftType",
          "type": "uint8"
        }
      ],
      "name": "getFundraisingBasePrice",
      "outputs": [
        {
          "internalType": "uint256",
          "name": "",
          "type": "uint256"
        }
      ],
      "stateMutability": "view",
      "type": "function"
    },
    {
      "inputs": [
        {
          "internalType": "uint256",
          "name": "fundraisingId",
          "type": "uint256"
        },
        {
          "internalType": "enum NftTypes.NftType",
          "name": "nftType",
          "type": "uint8"
        }
      ],
      "name": "getFundraisingBoughtAmount",
      "outputs": [
        {
          "internalType": "uint256",
          "name": "",
          "type": "uint256"
        }
      ],
      "stateMutability": "view",
      "type": "function"
    },
    {
      "inputs": [
        {
          "internalType": "uint256",
          "name": "fundraisingId",
          "type": "uint256"
        },
        {
          "internalType": "enum NftTypes.NftType",
          "name": "nftType",
          "type": "uint8"
        }
      ],
      "name": "getFundraisingMaxBuyAmount",
      "outputs": [
        {
          "internalType": "uint256",
          "name": "",
          "type": "uint256"
        }
      ],
      "stateMutability": "view",
      "type": "function"
    },
    {
      "inputs": [
        {
          "internalType": "uint256",
          "name": "fundraisingId",
          "type": "uint256"
        }
      ],
      "name": "getFundraisingStatus",
      "outputs": [
        {
          "internalType": "enum FundraisingCenter.Status",
          "name": "",
          "type": "uint8"
        }
      ],
      "stateMutability": "view",
      "type": "function"
    },
    {
      "inputs": [
        {
          "internalType": "bytes32",
          "name": "role",
          "type": "bytes32"
        }
      ],
      "name": "getRoleAdmin",
      "outputs": [
        {
          "internalType": "bytes32",
          "name": "",
          "type": "bytes32"
        }
      ],
      "stateMutability": "view",
      "type": "function"
    },
    {
      "inputs": [
        {
          "internalType": "uint256",
          "name": "fundraisingId",
          "type": "uint256"
        },
        {
          "internalType": "address",
          "name": "user",
          "type": "address"
        }
      ],
      "name": "getUserContribution",
      "outputs": [
        {
          "components": [
            {
              "internalType": "uint256",
              "name": "totalValue",
              "type": "uint256"
            },
            {
              "internalType": "uint256",
              "name": "totalContribution",
              "type": "uint256"
            },
            {
              "internalType": "uint256",
              "name": "claimedCount",
              "type": "uint256"
            },
            {
              "internalType": "bool",
              "name": "refunded",
              "type": "bool"
            },
            {
              "internalType": "bool",
              "name": "fullClaimed",
              "type": "bool"
            },
            {
              "internalType": "bool",
              "name": "whitelisted",
              "type": "bool"
            }
          ],
          "internalType": "struct FundraisingCenter.UserContribution",
          "name": "",
          "type": "tuple"
        }
      ],
      "stateMutability": "view",
      "type": "function"
    },
    {
      "inputs": [
        {
          "internalType": "uint256",
          "name": "fundraisingId",
          "type": "uint256"
        },
        {
          "internalType": "address",
          "name": "user",
          "type": "address"
        },
        {
          "internalType": "enum NftTypes.NftType",
          "name": "nftType",
          "type": "uint8"
        }
      ],
      "name": "getUserContributionByType",
      "outputs": [
        {
          "internalType": "uint256",
          "name": "",
          "type": "uint256"
        }
      ],
      "stateMutability": "view",
      "type": "function"
    },
    {
      "inputs": [
        {
          "internalType": "uint256",
          "name": "fundraisingId",
          "type": "uint256"
        },
        {
          "internalType": "address",
          "name": "user",
          "type": "address"
        }
      ],
      "name": "getUserWhitelisted",
      "outputs": [
        {
          "internalType": "bool",
          "name": "",
          "type": "bool"
        }
      ],
      "stateMutability": "view",
      "type": "function"
    },
    {
      "inputs": [
        {
          "internalType": "bytes32",
          "name": "role",
          "type": "bytes32"
        },
        {
          "internalType": "address",
          "name": "account",
          "type": "address"
        }
      ],
      "name": "grantRole",
      "outputs": [],
      "stateMutability": "nonpayable",
      "type": "function"
    },
    {
      "inputs": [
        {
          "internalType": "bytes32",
          "name": "role",
          "type": "bytes32"
        },
        {
          "internalType": "address",
          "name": "account",
          "type": "address"
        }
      ],
      "name": "hasRole",
      "outputs": [
        {
          "internalType": "bool",
          "name": "",
          "type": "bool"
        }
      ],
      "stateMutability": "view",
      "type": "function"
    },
    {
      "inputs": [],
      "name": "maxDuration",
      "outputs": [
        {
          "internalType": "uint256",
          "name": "",
          "type": "uint256"
        }
      ],
      "stateMutability": "view",
      "type": "function"
    },
    {
      "inputs": [],
      "name": "maxStartTime",
      "outputs": [
        {
          "internalType": "uint256",
          "name": "",
          "type": "uint256"
        }
      ],
      "stateMutability": "view",
      "type": "function"
    },
    {
      "inputs": [],
      "name": "nftContract",
      "outputs": [
        {
          "internalType": "contract PeaqNFT",
          "name": "",
          "type": "address"
        }
      ],
      "stateMutability": "view",
      "type": "function"
    },
    {
      "inputs": [
        {
          "internalType": "enum NftTypes.NftType",
          "name": "",
          "type": "uint8"
        }
      ],
      "name": "nftDurations",
      "outputs": [
        {
          "internalType": "uint256",
          "name": "",
          "type": "uint256"
        }
      ],
      "stateMutability": "view",
      "type": "function"
    },
    {
      "inputs": [
        {
          "internalType": "uint256",
          "name": "fundraisingId",
          "type": "uint256"
        }
      ],
      "name": "refund",
      "outputs": [],
      "stateMutability": "nonpayable",
      "type": "function"
    },
    {
      "inputs": [
        {
          "internalType": "uint256",
          "name": "fundraisingId",
          "type": "uint256"
        },
        {
          "internalType": "address",
          "name": "user",
          "type": "address"
        }
      ],
      "name": "removeFromWhitelist",
      "outputs": [],
      "stateMutability": "nonpayable",
      "type": "function"
    },
    {
      "inputs": [
        {
          "internalType": "bytes32",
          "name": "role",
          "type": "bytes32"
        },
        {
          "internalType": "address",
          "name": "account",
          "type": "address"
        }
      ],
      "name": "renounceRole",
      "outputs": [],
      "stateMutability": "nonpayable",
      "type": "function"
    },
    {
      "inputs": [
        {
          "internalType": "bytes32",
          "name": "role",
          "type": "bytes32"
        },
        {
          "internalType": "address",
          "name": "account",
          "type": "address"
        }
      ],
      "name": "revokeRole",
      "outputs": [],
      "stateMutability": "nonpayable",
      "type": "function"
    },
    {
      "inputs": [
        {
          "internalType": "uint256",
          "name": "fundraisingId",
          "type": "uint256"
        },
        {
          "internalType": "enum NftTypes.NftType",
          "name": "nftType",
          "type": "uint8"
        },
        {
          "internalType": "uint256",
          "name": "newBasePrice",
          "type": "uint256"
        }
      ],
      "name": "setBasePrice",
      "outputs": [],
      "stateMutability": "nonpayable",
      "type": "function"
    },
    {
      "inputs": [
        {
          "internalType": "uint256",
          "name": "_maxDuration",
          "type": "uint256"
        }
      ],
      "name": "setMaxDuration",
      "outputs": [],
      "stateMutability": "nonpayable",
      "type": "function"
    },
    {
      "inputs": [
        {
          "internalType": "uint256",
          "name": "_maxStartTime",
          "type": "uint256"
        }
      ],
      "name": "setMaxStartTime",
      "outputs": [],
      "stateMutability": "nonpayable",
      "type": "function"
    },
    {
      "inputs": [
        {
          "internalType": "address",
          "name": "nftContractAddress",
          "type": "address"
        }
      ],
      "name": "setNftContractAddress",
      "outputs": [],
      "stateMutability": "nonpayable",
      "type": "function"
    },
    {
      "inputs": [
        {
          "internalType": "enum NftTypes.NftType",
          "name": "nftType",
          "type": "uint8"
        },
        {
          "internalType": "uint256",
          "name": "duration",
          "type": "uint256"
        }
      ],
      "name": "setNftDuration",
      "outputs": [],
      "stateMutability": "nonpayable",
      "type": "function"
    },
    {
      "inputs": [
        {
          "internalType": "bytes4",
          "name": "interfaceId",
          "type": "bytes4"
        }
      ],
      "name": "supportsInterface",
      "outputs": [
        {
          "internalType": "bool",
          "name": "",
          "type": "bool"
        }
      ],
      "stateMutability": "view",
      "type": "function"
    }
  ],
  "transactionHash": "0xe898e71cd60c455db42445d8a68073be9f3ebedf92728e54ddc0fdf1adbac411",
  "args": [
    "0x04A79CBd47da8c5C6a0186c8603Fa5eEb9529a3C",
    604800,
    2592000,
    600,
    1800
  ],
  "numDeployments": 2,
  "solcInputHash": "ac7529fbb1bf3d4a49c6ff8a107c148c",
  "bytecode": "0x608060405234801561001057600080fd5b50604051612cd8380380612cd883398101604081905261002f91610167565b6001805561003e6000336100bb565b600580546001600160a01b0319166001600160a01b039690961695909517909455600292835560039190915560046020527f2e174c10e159ea99b867ce3205125c24a42d128804e4070ed6fcc8cc98166aa0556000527f91da3fd0782e51c6b3986e9e672fd566868e71f3dbc2d6c2cd6fbb3e361af2a7556101bc565b6100c582826100c9565b5050565b6000828152602081815260408083206001600160a01b038516845290915290205460ff166100c5576000828152602081815260408083206001600160a01b03851684529091529020805460ff191660011790556101233390565b6001600160a01b0316816001600160a01b0316837f2f8788117e7eff1d82e926ec794901d17c78024a50270940304540a733656f0d60405160405180910390a45050565b600080600080600060a0868803121561017f57600080fd5b85516001600160a01b038116811461019657600080fd5b602087015160408801516060890151608090990151929a91995097965090945092505050565b612b0d806101cb6000396000f3fe60806040526004361061020f5760003560e01c806383fffd4811610118578063d42ea3be116100a0578063da31d6401161006f578063da31d64014610836578063e087054f14610856578063e6f3a8f314610876578063ea3018601461088c578063fea3e613146108ac57600080fd5b8063d42ea3be1461074c578063d547741f1461076c578063d56d229d1461078c578063d9669984146107c457600080fd5b80639dcfd45b116100e75780639dcfd45b1461068f578063a217fddf146106bd578063aad1bb1a146106d2578063ab2b6bab146106ff578063cf0f34c41461072c57600080fd5b806383fffd481461061c5780638c5909171461063c57806391d148541461064f5780639524638f1461066f57600080fd5b80632d7854611161019b578063444353b01161016a578063444353b01461044357806347e1575a1461048d5780635117e338146104ad5780636db5c8fd146105d2578063797669c9146105e857600080fd5b80632d785461146103c35780632f2ff15d146103e357806331c7364f1461040357806336568abe1461042357600080fd5b8063105326d3116101e2578063105326d3146102b95780631a76e3f9146102d9578063248a9ca31461035357806325e235ff14610383578063278ecde1146103a357600080fd5b806301a98bf21461021457806301ffc9a7146102365780630a37cb241461026b5780630cd4a8461461028b575b600080fd5b34801561022057600080fd5b5061023461022f36600461253c565b6108cc565b005b34801561024257600080fd5b50610256610251366004612555565b6109c2565b60405190151581526020015b60405180910390f35b34801561027757600080fd5b5061023461028636600461253c565b6109f9565b34801561029757600080fd5b506102ab6102a6366004612593565b610a19565b604051908152602001610262565b3480156102c557600080fd5b506102346102d43660046125bf565b610a67565b3480156102e557600080fd5b506103406102f436600461253c565b600660208190526000918252604090912080546001820154600283015460038401549484015460078501546008909501546001600160a01b03909416959294919360ff91821692911687565b6040516102629796959493929190612613565b34801561035f57600080fd5b506102ab61036e36600461253c565b60009081526020819052604090206001015490565b34801561038f57600080fd5b5061023461039e36600461265f565b610aea565b3480156103af57600080fd5b506102346103be36600461253c565b610b09565b3480156103cf57600080fd5b506102346103de366004612698565b610d64565b3480156103ef57600080fd5b506102346103fe366004612698565b610e0d565b34801561040f57600080fd5b5061023461041e36600461253c565b610e37565b34801561042f57600080fd5b5061023461043e366004612698565b610fd5565b34801561044f57600080fd5b5061025661045e366004612698565b60008281526006602090815260408083206001600160a01b0385168452600a0190915290205460ff1692915050565b34801561049957600080fd5b506102346104a83660046126bb565b61104f565b3480156104b957600080fd5b506105806104c8366004612698565b6040805160c081018252600080825260208201819052918101829052606081018290526080810182905260a08101919091525060008281526006602090815260408083206001600160a01b038516808552600982018452828520835160c0810185526001820154815260048201548187015260038201548186015260029091015460ff80821615156060840152610100909104811615156080830152918652600a90920190935292205416151560a082015292915050565b6040516102629190600060c08201905082518252602083015160208301526040830151604083015260608301511515606083015260808301511515608083015260a0830151151560a083015292915050565b3480156105de57600080fd5b506102ab60035481565b3480156105f457600080fd5b506102ab7f71f3d55856e4058ed06ee057d79ada615f65cdf5f9ee88181b914225088f834f81565b34801561062857600080fd5b506102ab6106373660046126f1565b61118b565b61023461064a36600461265f565b6111f0565b34801561065b57600080fd5b5061025661066a366004612698565b61150d565b34801561067b57600080fd5b506102ab61068a366004612593565b611536565b34801561069b57600080fd5b506106af6106aa36600461272d565b61155b565b6040516102629291906127b9565b3480156106c957600080fd5b506102ab600081565b3480156106de57600080fd5b506102ab6106ed3660046127db565b60046020526000908152604090205481565b34801561070b57600080fd5b5061071f61071a36600461253c565b611586565b60405161026291906127f6565b34801561073857600080fd5b5061023461074736600461253c565b6115a4565b34801561075857600080fd5b50610234610767366004612804565b6115ec565b34801561077857600080fd5b50610234610787366004612698565b61182b565b34801561079857600080fd5b506005546107ac906001600160a01b031681565b6040516001600160a01b039091168152602001610262565b3480156107d057600080fd5b506107e46107df36600461253c565b611850565b604051610262919081516001600160a01b031681526020808301519082015260408083015190820152606080830151908201526080808301519082015260a09182015115159181019190915260c00190565b34801561084257600080fd5b50610234610851366004612859565b6118fb565b34801561086257600080fd5b506102ab610871366004612593565b611954565b34801561088257600080fd5b506102ab60025481565b34801561089857600080fd5b506102346108a736600461253c565b611979565b3480156108b857600080fd5b506102346108c7366004612698565b6119b9565b60008181526006602052604090205481906001600160a01b0316331461090d5760405162461bcd60e51b815260040161090490612874565b60405180910390fd5b60008281526006602052604081209061092582611a52565b6004811115610936576109366125e9565b146109835760405162461bcd60e51b815260206004820152601b60248201527f46756e6472616973696e67206e6f7420696e206372656174696f6e00000000006044820152606401610904565b60068101805460ff1916600117905560405183907f1e834e2300181ee53b68da68b5985cf6145bfff33642ef365ab34df2e9c7d6a390600090a2505050565b60006001600160e01b03198216637965db0b60e01b14806109f357506301ffc9a760e01b6001600160e01b03198316145b92915050565b610a01611a8c565b610a0d81600019611ae5565b610a1660018055565b50565b60008281526006602052604081206005810182846003811115610a3e57610a3e6125e9565b6003811115610a4f57610a4f6125e9565b81526020019081526020016000205491505092915050565b6000610a7281611d58565b8160046000856003811115610a8957610a896125e9565b6003811115610a9a57610a9a6125e9565b8152602001908152602001600020819055507f917f34c163ae8f5536a93d7f5f8fd498545529d41e63bde7fc5457960ef4c3b58383604051610add92919061289c565b60405180910390a1505050565b610af2611a8c565b610afc8282611ae5565b610b0560018055565b5050565b610b11611a8c565b60008181526006602052604090206003610b2a82611a52565b6004811115610b3b57610b3b6125e9565b14610b815760405162461bcd60e51b8152602060048201526016602482015275199d5b991c985a5cda5b99c81b9bdd0819985a5b195960521b6044820152606401610904565b3360009081526009820160205260409020600281015460ff1615610bda5760405162461bcd60e51b815260206004820152601060248201526f105b1c9958591e481c99599d5b99195960821b6044820152606401610904565b600060015b600360ff821611610c9d5760008160ff166003811115610c0157610c016125e9565b9050846004016000826003811115610c1b57610c1b6125e9565b6003811115610c2c57610c2c6125e9565b815260200190815260200160002054846000016000836003811115610c5357610c536125e9565b6003811115610c6457610c646125e9565b815260200190815260200160002054610c7d91906128cd565b610c8790846128e4565b9250508080610c95906128f7565b915050610bdf565b5060008111610ce45760405162461bcd60e51b81526020600482015260136024820152724e6f20726566756e6420617661696c61626c6560681b6044820152606401610904565b60028201805460ff19166001179055604051339082156108fc029083906000818181858888f19350505050158015610d20573d6000803e3d6000fd5b50604051818152339085907ff3f402280ef0a7905e124aa621b65eaeb2725c343e8b36d398ed78c29daf285c9060200160405180910390a3505050610a1660018055565b60008281526006602052604090205482906001600160a01b03163314610d9c5760405162461bcd60e51b815260040161090490612874565b60008381526006602090815260408083206001600160a01b038616808552600a8201845293829020805460ff191660019081179091559151918252929186917f6ac489d45eb8bf1a970353adde961baf16a2ab4af3d2a8f0cb488b0cd30af85691015b60405180910390a350505050565b600082815260208190526040902060010154610e2881611d58565b610e328383611d62565b505050565b610e3f611a8c565b60008181526006602052604090205481906001600160a01b03163314610e775760405162461bcd60e51b815260040161090490612874565b60008281526006602052604090206004610e9082611a52565b6004811115610ea157610ea16125e9565b14610eee5760405162461bcd60e51b815260206004820152601a60248201527f46756e6472616973696e67206e6f74207375636365737366756c0000000000006044820152606401610904565b600881015460ff1615610f355760405162461bcd60e51b815260206004820152600f60248201526e185b1c9958591e4818db185a5b5959608a1b6044820152606401610904565b60088101805460ff19166001179055805460078201546040516001600160a01b039092169181156108fc0291906000818181858888f19350505050158015610f81573d6000803e3d6000fd5b50336001600160a01b0316837f0a9e1de55a065643f8dff969c1060aad378bb6b9119760d23fa531644ea900608360070154604051610fc291815260200190565b60405180910390a35050610a1660018055565b6001600160a01b03811633146110455760405162461bcd60e51b815260206004820152602f60248201527f416363657373436f6e74726f6c3a2063616e206f6e6c792072656e6f756e636560448201526e103937b632b9903337b91039b2b63360891b6064820152608401610904565b610b058282611de6565b60008381526006602052604090205483906001600160a01b031633146110875760405162461bcd60e51b815260040161090490612874565b60008481526006602052604081209061109f82611a52565b60048111156110b0576110b06125e9565b146110fd5760405162461bcd60e51b815260206004820152601b60248201527f46756e6472616973696e67206e6f7420696e206372656174696f6e00000000006044820152606401610904565b82816004016000866003811115611116576111166125e9565b6003811115611127576111276125e9565b815260208101919091526040016000205583600381111561114a5761114a6125e9565b857f98f785546216d1891be3ef264ecf34be2aa1953812e8998684bd7b4078b9765c8560405161117c91815260200190565b60405180910390a35050505050565b60008381526006602090815260408083206001600160a01b038616845260098101909252822080838560038111156111c5576111c56125e9565b60038111156111d6576111d66125e9565b815260200190815260200160002054925050509392505050565b6111f8611a8c565b6000828152600660205260409020600261121182611a52565b6004811115611222576112226125e9565b1461125a5760405162461bcd60e51b81526020600482015260086024820152672737ba1037b832b760c11b6044820152606401610904565b60606000611269838542611e4b565b9092509050348111156112ae5760405162461bcd60e51b815260206004820152600d60248201526c496e76616c69642076616c756560981b6044820152606401610904565b3360009081526009840160209081526040808320600a8701909252822054909160ff909116905b84518110156114485760008582815181106112f2576112f2612916565b60200260200101516020015190508060000361130e5750611440565b600086838151811061132257611322612916565b6020026020010151600001519050838061134e5750600381600381111561134b5761134b6125e9565b14155b61138c5760405162461bcd60e51b815260206004820152600f60248201526e139bdd081dda1a5d195b1a5cdd1959608a1b6044820152606401610904565b818560008360038111156113a2576113a26125e9565b60038111156113b3576113b36125e9565b815260200190815260200160002060008282546113d091906128e4565b92505081905550818560040160008282546113eb91906128e4565b90915550829050600b8901600083600381111561140a5761140a6125e9565b600381111561141b5761141b6125e9565b8152602001908152602001600020600082825461143891906128e4565b909155505050505b6001016112d5565b508282600101600082825461145d91906128e4565b925050819055508285600701600082825461147891906128e4565b9091555050348310156114bd57336108fc611493853461292c565b6040518115909202916000818181858888f193505050501580156114bb573d6000803e3d6000fd5b505b336001600160a01b0316877ff5dd77fd0c2e2e4c2ae031bc4ed09e53e7f04b89104dca6487fc94ddd8a056d3866040516114f7919061293f565b60405180910390a35050505050610b0560018055565b6000918252602082815260408084206001600160a01b0393909316845291905290205460ff1690565b6000828152600660205260408120600b810182846003811115610a3e57610a3e6125e9565b600083815260066020526040812060609190611578818686611e4b565b92509250505b935093915050565b600081815260066020526040812061159d81612279565b9392505050565b60006115af81611d58565b60038290556040518281527f5051341ab3f6d56c8295227b7476589d73ae29d5dfaff08dfc01f67f28a8a3e3906020015b60405180910390a15050565b7f71f3d55856e4058ed06ee057d79ada615f65cdf5f9ee88181b914225088f834f61161681611d58565b60025461162390426128e4565b8911156116685760405162461bcd60e51b815260206004820152601360248201527253746172742074696d6520746f6f206c61746560681b6044820152606401610904565b6003548811156116ae5760405162461bcd60e51b81526020600482015260116024820152704475726174696f6e20746f6f206c6f6e6760781b6044820152606401610904565b6000831180156116be5750600082115b6117035760405162461bcd60e51b81526020600482015260166024820152751a5b9d985b1a59081b585e08189d5e48185b5bdd5b9d60521b6044820152606401610904565b600061170e60075490565b905061171e600780546001019055565b6000818152600660205260409020600181018b905561173d8a8c6128e4565b60028281019190915560038083018b9055600081815260048401602090815260408083208d90558483528083208c9055600183528083208b905592825260058501905281812088905591825290208490558361179b8660001961292c565b6117a5919061292c565b600160009081526005830160209081526040918290209290925582546001600160a01b03191633908117845560068401805460ff1916905581518e81529283018d90528282018c90529051909184917f5b6d851433f35041c1647fbf25eac54db00fe8adac23306d898f05ae57aad0349181900360600190a35050505050505050505050565b60008281526020819052604090206001015461184681611d58565b610e328383611de6565b6118946040518060c0016040528060006001600160a01b03168152602001600081526020016000815260200160008152602001600081526020016000151581525090565b50600090815260066020908152604091829020825160c08101845281546001600160a01b03168152600182015492810192909252600281015492820192909252600382015460608201526007820154608082015260089091015460ff16151560a082015290565b600061190681611d58565b600580546001600160a01b0319166001600160a01b0384169081179091556040519081527fa27bdd7b0c9c795c64307abe4a8b21d993ec4bd2601c38dfaee5cfc991375ae8906020016115e0565b60008281526006602052604081206004810182846003811115610a3e57610a3e6125e9565b600061198481611d58565b60028290556040518281527f80d5f1d83f89ad0b48c44485f6200793cb902e10200531a8147e74cc497a7e32906020016115e0565b60008281526006602052604090205482906001600160a01b031633146119f15760405162461bcd60e51b815260040161090490612874565b60008381526006602090815260408083206001600160a01b038616808552600a82018452828520805460ff19169055915193845292909186917f6ac489d45eb8bf1a970353adde961baf16a2ab4af3d2a8f0cb488b0cd30af8569101610dff565b600080611a5e83612279565b600684018054919250829160ff19166001836004811115611a8157611a816125e9565b021790555092915050565b600260015403611ade5760405162461bcd60e51b815260206004820152601f60248201527f5265656e7472616e637947756172643a207265656e7472616e742063616c6c006044820152606401610904565b6002600155565b60008281526006602052604090206004611afe82611a52565b6004811115611b0f57611b0f6125e9565b14611b505760405162461bcd60e51b81526020600482015260116024820152705261697365206e6f74207375636365737360781b6044820152606401610904565b33600090815260098201602052604090206002810154610100900460ff1615611bad5760405162461bcd60e51b815260206004820152600f60248201526e185b1c9958591e4818db185a5b5959608a1b6044820152606401610904565b6003810154600482015460009060015b600360ff821611611cfd5760008160ff166003811115611bdf57611bdf6125e9565b9050856000826003811115611bf657611bf66125e9565b6003811115611c0757611c076125e9565b81526020019081526020016000205484611c2191906128e4565b93506000611c2f8686612952565b90506000811315611ce8576000898211611c495781611c4b565b895b60055460405163dca5feeb60e01b81529192506001600160a01b03169063dca5feeb90611c8090339087908690600401612979565b600060405180830381600087803b158015611c9a57600080fd5b505af1158015611cae573d6000803e3d6000fd5b505050508087611cbe91906128e4565b9650611cca818b61292c565b9950891580611cd95750848710155b15611ce657505050611cfd565b505b50508080611cf5906128f7565b915050611bbd565b506003840183905560048401548303611d225760028401805461ff0019166101001790555b604051339088907f4bf2cdee552899b0141c49054277f834361e8b226984d4ee3076d717af886a8290600090a350505050505050565b610a168133612335565b611d6c828261150d565b610b05576000828152602081815260408083206001600160a01b03851684529091529020805460ff19166001179055611da23390565b6001600160a01b0316816001600160a01b0316837f2f8788117e7eff1d82e926ec794901d17c78024a50270940304540a733656f0d60405160405180910390a45050565b611df0828261150d565b15610b05576000828152602081815260408083206001600160a01b0385168085529252808320805460ff1916905551339285917ff6391f5c32d9c69d2a47ea670b442974b53935d1edc7fd64eb21e047a839171b9190a45050565b60606000808411611e8f5760405162461bcd60e51b815260206004820152600e60248201526d24b73b30b634b210373ab6b132b960911b6044820152606401610904565b60408051600480825260a0820190925290816020015b6040805180820190915260008082526020820152815260200190600190039081611ea557505060408051600480825260a082019092529193506000925082919060208201608080368337505060408051600480825260a0820190925292935060009291506020820160808036833701905050905060015b600360ff8216116120045760008160ff166003811115611f3e57611f3e6125e9565b905088600b016000826003811115611f5857611f586125e9565b6003811115611f6957611f696125e9565b815260200190815260200160002054848360ff1681518110611f8d57611f8d612916565b602002602001018181525050886005016000826003811115611fb157611fb16125e9565b6003811115611fc257611fc26125e9565b815260200190815260200160002054838360ff1681518110611fe657611fe6612916565b60209081029190910101525080611ffc816128f7565b915050611f1c565b506000876001015486612017919061292c565b905060008060035b600160ff82161061220f5760008160ff166003811115612041576120416125e9565b905060046000826003811115612059576120596125e9565b600381111561206a5761206a6125e9565b8152602001908152602001600020548461208491906128e4565b9350838510156121fc57815b600160ff8216106121fa5760008160ff1660038111156120b2576120b26125e9565b90506000898360ff16815181106120cb576120cb612916565b6020026020010151898460ff16815181106120e8576120e8612916565b60200260200101516120fa919061292c565b90506000818f1161210b578e61210d565b815b90508060000361211f575050506121e8565b604051806040016040528084600381111561213c5761213c6125e9565b81526020018290528d8861214f816129be565b99508151811061216157612161612916565b60200260200101819052508f6004016000846003811115612184576121846125e9565b6003811115612195576121956125e9565b815260200190815260200160002054816121af91906128cd565b6121b9908d6128e4565b9b50808f6121c7919061292c565b9e508e6000036121e457868d52505050505050505050505061157e565b5050505b806121f2816129d7565b915050612090565b505b5080612207816129d7565b91505061201f565b506040805180820190915280600181526020018a8152508760008151811061223957612239612916565b602090810291909101015260048a01600060018152602001908152602001600020548961226691906128cd565b9550600187525050505050935093915050565b60006001600683015460ff166004811115612296576122966125e9565b14806122ba57506003600683015460ff1660048111156122b8576122b86125e9565b145b806122dd57506004600683015460ff1660048111156122db576122db6125e9565b145b156122ed57506006015460ff1690565b8160020154421061231757600382015460078301541061230f57506004919050565b506003919050565b8160010154421061232a57506002919050565b506006015460ff1690565b61233f828261150d565b610b055761234c8161238e565b6123578360206123a0565b604051602001612368929190612a18565b60408051601f198184030181529082905262461bcd60e51b825261090491600401612a8d565b60606109f36001600160a01b03831660145b606060006123af8360026128cd565b6123ba9060026128e4565b67ffffffffffffffff8111156123d2576123d26129a8565b6040519080825280601f01601f1916602001820160405280156123fc576020820181803683370190505b509050600360fc1b8160008151811061241757612417612916565b60200101906001600160f81b031916908160001a905350600f60fb1b8160018151811061244657612446612916565b60200101906001600160f81b031916908160001a905350600061246a8460026128cd565b6124759060016128e4565b90505b60018111156124ed576f181899199a1a9b1b9c1cb0b131b232b360811b85600f16601081106124a9576124a9612916565b1a60f81b8282815181106124bf576124bf612916565b60200101906001600160f81b031916908160001a90535060049490941c936124e681612ac0565b9050612478565b50831561159d5760405162461bcd60e51b815260206004820181905260248201527f537472696e67733a20686578206c656e67746820696e73756666696369656e746044820152606401610904565b60006020828403121561254e57600080fd5b5035919050565b60006020828403121561256757600080fd5b81356001600160e01b03198116811461159d57600080fd5b80356004811061258e57600080fd5b919050565b600080604083850312156125a657600080fd5b823591506125b66020840161257f565b90509250929050565b600080604083850312156125d257600080fd5b6125db8361257f565b946020939093013593505050565b634e487b7160e01b600052602160045260246000fd5b6005811061260f5761260f6125e9565b9052565b6001600160a01b038816815260208101879052604081018690526060810185905260e0810161264560808301866125ff565b8360a083015282151560c083015298975050505050505050565b6000806040838503121561267257600080fd5b50508035926020909101359150565b80356001600160a01b038116811461258e57600080fd5b600080604083850312156126ab57600080fd5b823591506125b660208401612681565b6000806000606084860312156126d057600080fd5b833592506126e06020850161257f565b929592945050506040919091013590565b60008060006060848603121561270657600080fd5b8335925061271660208501612681565b91506127246040850161257f565b90509250925092565b60008060006060848603121561274257600080fd5b505081359360208301359350604090920135919050565b6004811061260f5761260f6125e9565b600081518084526020840193506020830160005b828110156127af578151612792878251612759565b60209081015187820152604090960195919091019060010161277d565b5093949350505050565b6040815260006127cc6040830185612769565b90508260208301529392505050565b6000602082840312156127ed57600080fd5b61159d8261257f565b602081016109f382846125ff565b600080600080600080600080610100898b03121561282157600080fd5b505086359860208801359850604088013597606081013597506080810135965060a0810135955060c0810135945060e0013592509050565b60006020828403121561286b57600080fd5b61159d82612681565b6020808252600e908201526d37b7363c9036b7b232b930ba37b960911b604082015260600190565b604081016128aa8285612759565b8260208301529392505050565b634e487b7160e01b600052601160045260246000fd5b80820281158282048414176109f3576109f36128b7565b808201808211156109f3576109f36128b7565b600060ff821660ff810361290d5761290d6128b7565b60010192915050565b634e487b7160e01b600052603260045260246000fd5b818103818111156109f3576109f36128b7565b60208152600061159d6020830184612769565b8181036000831280158383131683831282161715612972576129726128b7565b5092915050565b6001600160a01b0384168152606081016129966020830185612759565b61ffff83166040830152949350505050565b634e487b7160e01b600052604160045260246000fd5b6000600182016129d0576129d06128b7565b5060010190565b600060ff8216806129ea576129ea6128b7565b6000190192915050565b60005b83811015612a0f5781810151838201526020016129f7565b50506000910152565b7f416363657373436f6e74726f6c3a206163636f756e7420000000000000000000815260008351612a508160178501602088016129f4565b7001034b99036b4b9b9b4b733903937b6329607d1b6017918401918201528351612a818160288401602088016129f4565b01602801949350505050565b6020815260008251806020840152612aac8160408501602087016129f4565b601f01601f19169190910160400192915050565b600081612acf57612acf6128b7565b50600019019056fea2646970667358221220018e12b4c2565938c6b03c8b062164a36c600895067b65d6a8239b5edc3c3b3a64736f6c634300081c0033",
  "devdoc": {
    "events": {
      "RoleAdminChanged(bytes32,bytes32,bytes32)": {
        "details": "Emitted when `newAdminRole` is set as ``role``'s admin role, replacing `previousAdminRole` `DEFAULT_ADMIN_ROLE` is the starting admin for all roles, despite {RoleAdminChanged} not being emitted signaling this. _Available since v3.1._"
      },
      "RoleGranted(bytes32,address,address)": {
        "details": "Emitted when `account` is granted `role`. `sender` is the account that originated the contract call, an admin role bearer except when using {AccessControl-_setupRole}."
      },
      "RoleRevoked(bytes32,address,address)": {
        "details": "Emitted when `account` is revoked `role`. `sender` is the account that originated the contract call:   - if using `revokeRole`, it is the admin role bearer   - if using `renounceRole`, it is the role bearer (i.e. `account`)"
      }
    },
    "kind": "dev",
    "methods": {
      "getRoleAdmin(bytes32)": {
        "details": "Returns the admin role that controls `role`. See {grantRole} and {revokeRole}. To change a role's admin, use {_setRoleAdmin}."
      },
      "grantRole(bytes32,address)": {
        "details": "Grants `role` to `account`. If `account` had not been already granted `role`, emits a {RoleGranted} event. Requirements: - the caller must have ``role``'s admin role. May emit a {RoleGranted} event."
      },
      "hasRole(bytes32,address)": {
        "details": "Returns `true` if `account` has been granted `role`."
      },
      "renounceRole(bytes32,address)": {
        "details": "Revokes `role` from the calling account. Roles are often managed via {grantRole} and {revokeRole}: this function's purpose is to provide a mechanism for accounts to lose their privileges if they are compromised (such as when a trusted device is misplaced). If the calling account had been revoked `role`, emits a {RoleRevoked} event. Requirements: - the caller must be `account`. May emit a {RoleRevoked} event."
      },
      "revokeRole(bytes32,address)": {
        "details": "Revokes `role` from `account`. If `account` had been granted `role`, emits a {RoleRevoked} event. Requirements: - the caller must have ``role``'s admin role. May emit a {RoleRevoked} event."
      },
      "supportsInterface(bytes4)": {
        "details": "See {IERC165-supportsInterface}."
      }
    },
    "version": 1
  },
  "userdoc": {
    "kind": "user",
    "methods": {
      "createFundraising(uint256,uint256,uint256,uint256,uint256,uint256,uint256,uint256)": {
        "notice": "FUNDRAISING MANAGEMENT FUNCTIONS"
      },
      "getFundraisingStatus(uint256)": {
        "notice": "GETTER FUNCTIONS"
      },
      "setMaxStartTime(uint256)": {
        "notice": "DEFAULT ADMIN FUNCTIONS"
      }
    },
    "version": 1
  },
  "storageLayout": {
    "storage": [
      {
        "astId": 3429,
        "contract": "contracts/Fundraising.sol:FundraisingCenter",
        "label": "_roles",
        "offset": 0,
        "slot": "0",
        "type": "t_mapping(t_bytes32,t_struct(RoleData)3424_storage)"
      },
      {
        "astId": 3804,
        "contract": "contracts/Fundraising.sol:FundraisingCenter",
        "label": "_status",
        "offset": 0,
        "slot": "1",
        "type": "t_uint256"
      },
      {
        "astId": 6642,
        "contract": "contracts/Fundraising.sol:FundraisingCenter",
        "label": "maxStartTime",
        "offset": 0,
        "slot": "2",
        "type": "t_uint256"
      },
      {
        "astId": 6644,
        "contract": "contracts/Fundraising.sol:FundraisingCenter",
        "label": "maxDuration",
        "offset": 0,
        "slot": "3",
        "type": "t_uint256"
      },
      {
        "astId": 6649,
        "contract": "contracts/Fundraising.sol:FundraisingCenter",
        "label": "nftDurations",
        "offset": 0,
        "slot": "4",
        "type": "t_mapping(t_enum(NftType)8485,t_uint256)"
      },
      {
        "astId": 6652,
        "contract": "contracts/Fundraising.sol:FundraisingCenter",
        "label": "nftContract",
        "offset": 0,
        "slot": "5",
        "type": "t_contract(PeaqNFT)8724"
      },
      {
        "astId": 6719,
        "contract": "contracts/Fundraising.sol:FundraisingCenter",
        "label": "fundraisings",
        "offset": 0,
        "slot": "6",
        "type": "t_mapping(t_uint256,t_struct(Fundraising)6714_storage)"
      },
      {
        "astId": 6722,
        "contract": "contracts/Fundraising.sol:FundraisingCenter",
        "label": "_fundraisingIdCounter",
        "offset": 0,
        "slot": "7",
        "type": "t_struct(Counter)5312_storage"
      }
    ],
    "types": {
      "t_address": {
        "encoding": "inplace",
        "label": "address",
        "numberOfBytes": "20"
      },
      "t_bool": {
        "encoding": "inplace",
        "label": "bool",
        "numberOfBytes": "1"
      },
      "t_bytes32": {
        "encoding": "inplace",
        "label": "bytes32",
        "numberOfBytes": "32"
      },
      "t_contract(PeaqNFT)8724": {
        "encoding": "inplace",
        "label": "contract PeaqNFT",
        "numberOfBytes": "20"
      },
      "t_enum(NftType)8485": {
        "encoding": "inplace",
        "label": "enum NftTypes.NftType",
        "numberOfBytes": "1"
      },
      "t_enum(Status)6658": {
        "encoding": "inplace",
        "label": "enum FundraisingCenter.Status",
        "numberOfBytes": "1"
      },
      "t_mapping(t_address,t_bool)": {
        "encoding": "mapping",
        "key": "t_address",
        "label": "mapping(address => bool)",
        "numberOfBytes": "32",
        "value": "t_bool"
      },
      "t_mapping(t_address,t_struct(User)6674_storage)": {
        "encoding": "mapping",
        "key": "t_address",
        "label": "mapping(address => struct FundraisingCenter.User)",
        "numberOfBytes": "32",
        "value": "t_struct(User)6674_storage"
      },
      "t_mapping(t_bytes32,t_struct(RoleData)3424_storage)": {
        "encoding": "mapping",
        "key": "t_bytes32",
        "label": "mapping(bytes32 => struct AccessControl.RoleData)",
        "numberOfBytes": "32",
        "value": "t_struct(RoleData)3424_storage"
      },
      "t_mapping(t_enum(NftType)8485,t_uint256)": {
        "encoding": "mapping",
        "key": "t_enum(NftType)8485",
        "label": "mapping(enum NftTypes.NftType => uint256)",
        "numberOfBytes": "32",
        "value": "t_uint256"
      },
      "t_mapping(t_uint256,t_struct(Fundraising)6714_storage)": {
        "encoding": "mapping",
        "key": "t_uint256",
        "label": "mapping(uint256 => struct FundraisingCenter.Fundraising)",
        "numberOfBytes": "32",
        "value": "t_struct(Fundraising)6714_storage"
      },
      "t_struct(Counter)5312_storage": {
        "encoding": "inplace",
        "label": "struct Counters.Counter",
        "members": [
          {
            "astId": 5311,
            "contract": "contracts/Fundraising.sol:FundraisingCenter",
            "label": "_value",
            "offset": 0,
            "slot": "0",
            "type": "t_uint256"
          }
        ],
        "numberOfBytes": "32"
      },
      "t_struct(Fundraising)6714_storage": {
        "encoding": "inplace",
        "label": "struct FundraisingCenter.Fundraising",
        "members": [
          {
            "astId": 6676,
            "contract": "contracts/Fundraising.sol:FundraisingCenter",
            "label": "moderator",
            "offset": 0,
            "slot": "0",
            "type": "t_address"
          },
          {
            "astId": 6678,
            "contract": "contracts/Fundraising.sol:FundraisingCenter",
            "label": "startTime",
            "offset": 0,
            "slot": "1",
            "type": "t_uint256"
          },
          {
            "astId": 6680,
            "contract": "contracts/Fundraising.sol:FundraisingCenter",
            "label": "targetTime",
            "offset": 0,
            "slot": "2",
            "type": "t_uint256"
          },
          {
            "astId": 6682,
            "contract": "contracts/Fundraising.sol:FundraisingCenter",
            "label": "targetAmount",
            "offset": 0,
            "slot": "3",
            "type": "t_uint256"
          },
          {
            "astId": 6687,
            "contract": "contracts/Fundraising.sol:FundraisingCenter",
            "label": "basePrices",
            "offset": 0,
            "slot": "4",
            "type": "t_mapping(t_enum(NftType)8485,t_uint256)"
          },
          {
            "astId": 6692,
            "contract": "contracts/Fundraising.sol:FundraisingCenter",
            "label": "maxBuyAmounts",
            "offset": 0,
            "slot": "5",
            "type": "t_mapping(t_enum(NftType)8485,t_uint256)"
          },
          {
            "astId": 6695,
            "contract": "contracts/Fundraising.sol:FundraisingCenter",
            "label": "status",
            "offset": 0,
            "slot": "6",
            "type": "t_enum(Status)6658"
          },
          {
            "astId": 6697,
            "contract": "contracts/Fundraising.sol:FundraisingCenter",
            "label": "totalContribution",
            "offset": 0,
            "slot": "7",
            "type": "t_uint256"
          },
          {
            "astId": 6699,
            "contract": "contracts/Fundraising.sol:FundraisingCenter",
            "label": "fundClaimed",
            "offset": 0,
            "slot": "8",
            "type": "t_bool"
          },
          {
            "astId": 6704,
            "contract": "contracts/Fundraising.sol:FundraisingCenter",
            "label": "users",
            "offset": 0,
            "slot": "9",
            "type": "t_mapping(t_address,t_struct(User)6674_storage)"
          },
          {
            "astId": 6708,
            "contract": "contracts/Fundraising.sol:FundraisingCenter",
            "label": "whitelist",
            "offset": 0,
            "slot": "10",
            "type": "t_mapping(t_address,t_bool)"
          },
          {
            "astId": 6713,
            "contract": "contracts/Fundraising.sol:FundraisingCenter",
            "label": "boughtAmounts",
            "offset": 0,
            "slot": "11",
            "type": "t_mapping(t_enum(NftType)8485,t_uint256)"
          }
        ],
        "numberOfBytes": "384"
      },
      "t_struct(RoleData)3424_storage": {
        "encoding": "inplace",
        "label": "struct AccessControl.RoleData",
        "members": [
          {
            "astId": 3421,
            "contract": "contracts/Fundraising.sol:FundraisingCenter",
            "label": "members",
            "offset": 0,
            "slot": "0",
            "type": "t_mapping(t_address,t_bool)"
          },
          {
            "astId": 3423,
            "contract": "contracts/Fundraising.sol:FundraisingCenter",
            "label": "adminRole",
            "offset": 0,
            "slot": "1",
            "type": "t_bytes32"
          }
        ],
        "numberOfBytes": "64"
      },
      "t_struct(User)6674_storage": {
        "encoding": "inplace",
        "label": "struct FundraisingCenter.User",
        "members": [
          {
            "astId": 6663,
            "contract": "contracts/Fundraising.sol:FundraisingCenter",
            "label": "contributions",
            "offset": 0,
            "slot": "0",
            "type": "t_mapping(t_enum(NftType)8485,t_uint256)"
          },
          {
            "astId": 6665,
            "contract": "contracts/Fundraising.sol:FundraisingCenter",
            "label": "totalValue",
            "offset": 0,
            "slot": "1",
            "type": "t_uint256"
          },
          {
            "astId": 6667,
            "contract": "contracts/Fundraising.sol:FundraisingCenter",
            "label": "refunded",
            "offset": 0,
            "slot": "2",
            "type": "t_bool"
          },
          {
            "astId": 6669,
            "contract": "contracts/Fundraising.sol:FundraisingCenter",
            "label": "fullClaimed",
            "offset": 1,
            "slot": "2",
            "type": "t_bool"
          },
          {
            "astId": 6671,
            "contract": "contracts/Fundraising.sol:FundraisingCenter",
            "label": "claimedCount",
            "offset": 0,
            "slot": "3",
            "type": "t_uint256"
          },
          {
            "astId": 6673,
            "contract": "contracts/Fundraising.sol:FundraisingCenter",
            "label": "totalContribution",
            "offset": 0,
            "slot": "4",
            "type": "t_uint256"
          }
        ],
        "numberOfBytes": "160"
      },
      "t_uint256": {
        "encoding": "inplace",
        "label": "uint256",
        "numberOfBytes": "32"
      }
    }
  }
}