{
  "address": "0x5376F9E2e36FBe45CC6EBF7ceC5aA8811f9E54D2",
  "abi": [
    {
      "anonymous": false,
      "inputs": [
        {
          "indexed": true,
          "internalType": "address",
          "name": "owner",
          "type": "address"
        },
        {
          "indexed": true,
          "internalType": "address",
          "name": "approved",
          "type": "address"
        },
        {
          "indexed": true,
          "internalType": "uint256",
          "name": "tokenId",
          "type": "uint256"
        }
      ],
      "name": "Approval",
      "type": "event"
    },
    {
      "anonymous": false,
      "inputs": [
        {
          "indexed": true,
          "internalType": "address",
          "name": "owner",
          "type": "address"
        },
        {
          "indexed": true,
          "internalType": "address",
          "name": "operator",
          "type": "address"
        },
        {
          "indexed": false,
          "internalType": "bool",
          "name": "approved",
          "type": "bool"
        }
      ],
      "name": "ApprovalForAll",
      "type": "event"
    },
    {
      "anonymous": false,
      "inputs": [
        {
          "indexed": false,
          "internalType": "uint8",
          "name": "version",
          "type": "uint8"
        }
      ],
      "name": "Initialized",
      "type": "event"
    },
    {
      "anonymous": false,
      "inputs": [
        {
          "indexed": true,
          "internalType": "enum NftTypes.NftType",
          "name": "nftType",
          "type": "uint8"
        },
        {
          "indexed": false,
          "internalType": "uint256",
          "name": "percentage",
          "type": "uint256"
        }
      ],
      "name": "RevenueSharePercentageSet",
      "type": "event"
    },
    {
      "anonymous": false,
      "inputs": [
        {
          "indexed": true,
          "internalType": "bytes32",
          "name": "role",
          "type": "bytes32"
        },
        {
          "indexed": true,
          "internalType": "bytes32",
          "name": "previousAdminRole",
          "type": "bytes32"
        },
        {
          "indexed": true,
          "internalType": "bytes32",
          "name": "newAdminRole",
          "type": "bytes32"
        }
      ],
      "name": "RoleAdminChanged",
      "type": "event"
    },
    {
      "anonymous": false,
      "inputs": [
        {
          "indexed": true,
          "internalType": "bytes32",
          "name": "role",
          "type": "bytes32"
        },
        {
          "indexed": true,
          "internalType": "address",
          "name": "account",
          "type": "address"
        },
        {
          "indexed": true,
          "internalType": "address",
          "name": "sender",
          "type": "address"
        }
      ],
      "name": "RoleGranted",
      "type": "event"
    },
    {
      "anonymous": false,
      "inputs": [
        {
          "indexed": true,
          "internalType": "bytes32",
          "name": "role",
          "type": "bytes32"
        },
        {
          "indexed": true,
          "internalType": "address",
          "name": "account",
          "type": "address"
        },
        {
          "indexed": true,
          "internalType": "address",
          "name": "sender",
          "type": "address"
        }
      ],
      "name": "RoleRevoked",
      "type": "event"
    },
    {
      "anonymous": false,
      "inputs": [
        {
          "indexed": true,
          "internalType": "address",
          "name": "from",
          "type": "address"
        },
        {
          "indexed": true,
          "internalType": "address",
          "name": "to",
          "type": "address"
        },
        {
          "indexed": true,
          "internalType": "uint256",
          "name": "tokenId",
          "type": "uint256"
        }
      ],
      "name": "Transfer",
      "type": "event"
    },
    {
      "inputs": [],
      "name": "DEFAULT_ADMIN_ROLE",
      "outputs": [
        {
          "internalType": "bytes32",
          "name": "",
          "type": "bytes32"
        }
      ],
      "stateMutability": "view",
      "type": "function"
    },
    {
      "inputs": [],
      "name": "MAX_PERCENTAGE",
      "outputs": [
        {
          "internalType": "uint256",
          "name": "",
          "type": "uint256"
        }
      ],
      "stateMutability": "view",
      "type": "function"
    },
    {
      "inputs": [],
      "name": "MINTER_ROLE",
      "outputs": [
        {
          "internalType": "bytes32",
          "name": "",
          "type": "bytes32"
        }
      ],
      "stateMutability": "view",
      "type": "function"
    },
    {
      "inputs": [
        {
          "internalType": "address",
          "name": "to",
          "type": "address"
        },
        {
          "internalType": "uint256",
          "name": "tokenId",
          "type": "uint256"
        }
      ],
      "name": "approve",
      "outputs": [],
      "stateMutability": "nonpayable",
      "type": "function"
    },
    {
      "inputs": [
        {
          "internalType": "address",
          "name": "owner",
          "type": "address"
        }
      ],
      "name": "balanceOf",
      "outputs": [
        {
          "internalType": "uint256",
          "name": "",
          "type": "uint256"
        }
      ],
      "stateMutability": "view",
      "type": "function"
    },
    {
      "inputs": [
        {
          "internalType": "uint256",
          "name": "tokenId",
          "type": "uint256"
        }
      ],
      "name": "getApproved",
      "outputs": [
        {
          "internalType": "address",
          "name": "",
          "type": "address"
        }
      ],
      "stateMutability": "view",
      "type": "function"
    },
    {
      "inputs": [
        {
          "internalType": "bytes32",
          "name": "role",
          "type": "bytes32"
        }
      ],
      "name": "getRoleAdmin",
      "outputs": [
        {
          "internalType": "bytes32",
          "name": "",
          "type": "bytes32"
        }
      ],
      "stateMutability": "view",
      "type": "function"
    },
    {
      "inputs": [
        {
          "internalType": "enum NftTypes.NftType",
          "name": "nftType",
          "type": "uint8"
        }
      ],
      "name": "getShareRevenuePercentage",
      "outputs": [
        {
          "internalType": "uint256",
          "name": "",
          "type": "uint256"
        }
      ],
      "stateMutability": "view",
      "type": "function"
    },
    {
      "inputs": [
        {
          "internalType": "uint256",
          "name": "tokenId",
          "type": "uint256"
        }
      ],
      "name": "getShareRevenuePercentageForToken",
      "outputs": [
        {
          "internalType": "uint256",
          "name": "",
          "type": "uint256"
        }
      ],
      "stateMutability": "view",
      "type": "function"
    },
    {
      "inputs": [
        {
          "internalType": "bytes32",
          "name": "role",
          "type": "bytes32"
        },
        {
          "internalType": "address",
          "name": "account",
          "type": "address"
        }
      ],
      "name": "grantRole",
      "outputs": [],
      "stateMutability": "nonpayable",
      "type": "function"
    },
    {
      "inputs": [
        {
          "internalType": "bytes32",
          "name": "role",
          "type": "bytes32"
        },
        {
          "internalType": "address",
          "name": "account",
          "type": "address"
        }
      ],
      "name": "hasRole",
      "outputs": [
        {
          "internalType": "bool",
          "name": "",
          "type": "bool"
        }
      ],
      "stateMutability": "view",
      "type": "function"
    },
    {
      "inputs": [
        {
          "internalType": "uint256",
          "name": "tokenId",
          "type": "uint256"
        }
      ],
      "name": "idToType",
      "outputs": [
        {
          "internalType": "enum NftTypes.NftType",
          "name": "",
          "type": "uint8"
        }
      ],
      "stateMutability": "pure",
      "type": "function"
    },
    {
      "inputs": [],
      "name": "initialize",
      "outputs": [],
      "stateMutability": "nonpayable",
      "type": "function"
    },
    {
      "inputs": [
        {
          "internalType": "address",
          "name": "owner",
          "type": "address"
        },
        {
          "internalType": "address",
          "name": "operator",
          "type": "address"
        }
      ],
      "name": "isApprovedForAll",
      "outputs": [
        {
          "internalType": "bool",
          "name": "",
          "type": "bool"
        }
      ],
      "stateMutability": "view",
      "type": "function"
    },
    {
      "inputs": [
        {
          "internalType": "address",
          "name": "who",
          "type": "address"
        },
        {
          "internalType": "enum NftTypes.NftType",
          "name": "nftType",
          "type": "uint8"
        },
        {
          "internalType": "uint16",
          "name": "amount",
          "type": "uint16"
        }
      ],
      "name": "mint",
      "outputs": [],
      "stateMutability": "nonpayable",
      "type": "function"
    },
    {
      "inputs": [],
      "name": "name",
      "outputs": [
        {
          "internalType": "string",
          "name": "",
          "type": "string"
        }
      ],
      "stateMutability": "view",
      "type": "function"
    },
    {
      "inputs": [
        {
          "internalType": "uint256",
          "name": "tokenId",
          "type": "uint256"
        }
      ],
      "name": "ownerOf",
      "outputs": [
        {
          "internalType": "address",
          "name": "",
          "type": "address"
        }
      ],
      "stateMutability": "view",
      "type": "function"
    },
    {
      "inputs": [
        {
          "internalType": "bytes32",
          "name": "role",
          "type": "bytes32"
        },
        {
          "internalType": "address",
          "name": "account",
          "type": "address"
        }
      ],
      "name": "renounceRole",
      "outputs": [],
      "stateMutability": "nonpayable",
      "type": "function"
    },
    {
      "inputs": [
        {
          "internalType": "bytes32",
          "name": "role",
          "type": "bytes32"
        },
        {
          "internalType": "address",
          "name": "account",
          "type": "address"
        }
      ],
      "name": "revokeRole",
      "outputs": [],
      "stateMutability": "nonpayable",
      "type": "function"
    },
    {
      "inputs": [
        {
          "internalType": "address",
          "name": "from",
          "type": "address"
        },
        {
          "internalType": "address",
          "name": "to",
          "type": "address"
        },
        {
          "internalType": "uint256",
          "name": "tokenId",
          "type": "uint256"
        }
      ],
      "name": "safeTransferFrom",
      "outputs": [],
      "stateMutability": "nonpayable",
      "type": "function"
    },
    {
      "inputs": [
        {
          "internalType": "address",
          "name": "from",
          "type": "address"
        },
        {
          "internalType": "address",
          "name": "to",
          "type": "address"
        },
        {
          "internalType": "uint256",
          "name": "tokenId",
          "type": "uint256"
        },
        {
          "internalType": "bytes",
          "name": "data",
          "type": "bytes"
        }
      ],
      "name": "safeTransferFrom",
      "outputs": [],
      "stateMutability": "nonpayable",
      "type": "function"
    },
    {
      "inputs": [
        {
          "internalType": "address",
          "name": "operator",
          "type": "address"
        },
        {
          "internalType": "bool",
          "name": "approved",
          "type": "bool"
        }
      ],
      "name": "setApprovalForAll",
      "outputs": [],
      "stateMutability": "nonpayable",
      "type": "function"
    },
    {
      "inputs": [
        {
          "internalType": "enum NftTypes.NftType",
          "name": "nftType",
          "type": "uint8"
        },
        {
          "internalType": "uint256",
          "name": "percentage",
          "type": "uint256"
        }
      ],
      "name": "setShareRevenuePercentage",
      "outputs": [],
      "stateMutability": "nonpayable",
      "type": "function"
    },
    {
      "inputs": [
        {
          "internalType": "bytes4",
          "name": "interfaceId",
          "type": "bytes4"
        }
      ],
      "name": "supportsInterface",
      "outputs": [
        {
          "internalType": "bool",
          "name": "",
          "type": "bool"
        }
      ],
      "stateMutability": "view",
      "type": "function"
    },
    {
      "inputs": [],
      "name": "symbol",
      "outputs": [
        {
          "internalType": "string",
          "name": "",
          "type": "string"
        }
      ],
      "stateMutability": "view",
      "type": "function"
    },
    {
      "inputs": [
        {
          "internalType": "uint256",
          "name": "tokenId",
          "type": "uint256"
        }
      ],
      "name": "tokenURI",
      "outputs": [
        {
          "internalType": "string",
          "name": "",
          "type": "string"
        }
      ],
      "stateMutability": "view",
      "type": "function"
    },
    {
      "inputs": [
        {
          "internalType": "address",
          "name": "from",
          "type": "address"
        },
        {
          "internalType": "address",
          "name": "to",
          "type": "address"
        },
        {
          "internalType": "uint256",
          "name": "tokenId",
          "type": "uint256"
        }
      ],
      "name": "transferFrom",
      "outputs": [],
      "stateMutability": "nonpayable",
      "type": "function"
    }
  ],
  "transactionHash": "0x58ff2ebab84ce7b44390dc36a7649b68ac7c55e2e0f15a189e0f7e9e438fa887",
  "args": [],
  "numDeployments": 1,
  "solcInputHash": "8a31dafe46d8f1ad8ba2669a39377571",
  "bytecode": "0x6080604052348015600f57600080fd5b5061202c8061001f6000396000f3fe608060405234801561001057600080fd5b50600436106101a95760003560e01c80638129fc1c116100f9578063d3a89e6511610097578063d547741f11610071578063d547741f1461039b578063dca5feeb146103ae578063e985e9c5146103c1578063f4797d22146103fd57600080fd5b8063d3a89e651461034e578063d465b5a014610361578063d53913931461037457600080fd5b8063a217fddf116100d3578063a217fddf1461030d578063a22cb46514610315578063b88d4fde14610328578063c87b56dd1461033b57600080fd5b80638129fc1c146102ea57806391d14854146102f257806395d89b411461030557600080fd5b80632f2ff15d1161016657806342842e0e1161014057806342842e0e146102a85780634c255c97146102bb5780636352211e146102c457806370a08231146102d757600080fd5b80632f2ff15d1461026f57806336568abe146102825780633de2153c1461029557600080fd5b806301ffc9a7146101ae57806306fdde03146101d6578063081812fc146101eb578063095ea7b31461021657806323b872dd1461022b578063248a9ca31461023e575b600080fd5b6101c16101bc366004611887565b61041d565b60405190151581526020015b60405180910390f35b6101de61043d565b6040516101cd91906118f4565b6101fe6101f9366004611907565b6104cf565b6040516001600160a01b0390911681526020016101cd565b61022961022436600461193c565b6104f6565b005b610229610239366004611966565b610610565b61026161024c366004611907565b60009081526097602052604090206001015490565b6040519081526020016101cd565b61022961027d3660046119a3565b610641565b6102296102903660046119a3565b610666565b6102296102a33660046119de565b6106e4565b6102296102b6366004611966565b6107c4565b61026161271081565b6101fe6102d2366004611907565b6107df565b6102616102e53660046119fa565b61083f565b6102296108c5565b6101c16103003660046119a3565b610a26565b6101de610a51565b610261600081565b610229610323366004611a15565b610a60565b610229610336366004611a67565b610a6b565b6101de610349366004611907565b610aa3565b61026161035c366004611b4b565b610b17565b61026161036f366004611907565b610b56565b6102617f9f2df0fed2c77648de5860a4cc508cd0818c85b8b8a1ab4ceeef8d981c8956a681565b6102296103a93660046119a3565b610b6d565b6102296103bc366004611b66565b610b92565b6101c16103cf366004611bb4565b6001600160a01b039182166000908152606a6020908152604080832093909416825291909152205460ff1690565b61041061040b366004611907565b610c79565b6040516101cd9190611bf4565b600061042882610c95565b80610437575061043782610cb6565b92915050565b60606065805461044c90611c1c565b80601f016020809104026020016040519081016040528092919081815260200182805461047890611c1c565b80156104c55780601f1061049a576101008083540402835291602001916104c5565b820191906000526020600020905b8154815290600101906020018083116104a857829003601f168201915b5050505050905090565b60006104da82610d06565b506000908152606960205260409020546001600160a01b031690565b6000610501826107df565b9050806001600160a01b0316836001600160a01b0316036105735760405162461bcd60e51b815260206004820152602160248201527f4552433732313a20617070726f76616c20746f2063757272656e74206f776e656044820152603960f91b60648201526084015b60405180910390fd5b336001600160a01b038216148061058f575061058f81336103cf565b6106015760405162461bcd60e51b815260206004820152603d60248201527f4552433732313a20617070726f76652063616c6c6572206973206e6f7420746f60448201527f6b656e206f776e6572206f7220617070726f76656420666f7220616c6c000000606482015260840161056a565b61060b8383610d65565b505050565b61061a3382610dd3565b6106365760405162461bcd60e51b815260040161056a90611c56565b61060b838383610e52565b60008281526097602052604090206001015461065c81610fb6565b61060b8383610fc0565b6001600160a01b03811633146106d65760405162461bcd60e51b815260206004820152602f60248201527f416363657373436f6e74726f6c3a2063616e206f6e6c792072656e6f756e636560448201526e103937b632b9903337b91039b2b63360891b606482015260840161056a565b6106e08282611046565b5050565b60006106ef81610fb6565b6127108211156107415760405162461bcd60e51b815260206004820152601b60248201527f506561714e46543a20496e76616c69642070657263656e746167650000000000604482015260640161056a565b8160ca600085600381111561075857610758611bde565b600381111561076957610769611bde565b815260208101919091526040016000205582600381111561078c5761078c611bde565b6040518381527f3b956c0b9e1bffe43a52dd48e16509548c62fe30ae1b1d75a340da7e806622e19060200160405180910390a2505050565b61060b83838360405180602001604052806000815250610a6b565b6000818152606760205260408120546001600160a01b0316806104375760405162461bcd60e51b8152602060048201526018602482015277115490cdcc8c4e881a5b9d985b1a59081d1bdad95b88125160421b604482015260640161056a565b60006001600160a01b0382166108a95760405162461bcd60e51b815260206004820152602960248201527f4552433732313a2061646472657373207a65726f206973206e6f7420612076616044820152683634b21037bbb732b960b91b606482015260840161056a565b506001600160a01b031660009081526068602052604090205490565b600054610100900460ff16158080156108e55750600054600160ff909116105b806108ff5750303b1580156108ff575060005460ff166001145b6109625760405162461bcd60e51b815260206004820152602e60248201527f496e697469616c697a61626c653a20636f6e747261637420697320616c72656160448201526d191e481a5b9a5d1a585b1a5e995960921b606482015260840161056a565b6000805460ff191660011790558015610985576000805461ff0019166101001790555b6109ca604051806040016040528060078152602001661419585c53919560ca1b815250604051806040016040528060048152602001631413919560e21b8152506110ad565b6109d26110de565b6109dd600033611107565b8015610a23576000805461ff0019169055604051600181527f7f26b83ff96e1f2b6a682f133852f6798a09c465da95921460cefb38474024989060200160405180910390a15b50565b60009182526097602090815260408084206001600160a01b0393909316845291905290205460ff1690565b60606066805461044c90611c1c565b6106e0338383611111565b610a753383610dd3565b610a915760405162461bcd60e51b815260040161056a90611c56565b610a9d848484846111df565b50505050565b6060610aae82610d06565b6000610ac560408051602081019091526000815290565b90506000815111610ae55760405180602001604052806000815250610b10565b80610aef84611212565b604051602001610b00929190611ca3565b6040516020818303038152906040525b9392505050565b600060ca6000836003811115610b2f57610b2f611bde565b6003811115610b4057610b40611bde565b8152602001908152602001600020549050919050565b600080610b6283610c79565b9050610b1081610b17565b600082815260976020526040902060010154610b8881610fb6565b61060b8383611046565b7f9f2df0fed2c77648de5860a4cc508cd0818c85b8b8a1ab4ceeef8d981c8956a6610bbc81610fb6565b60005b8261ffff168161ffff161015610c72576000610c0d60c96000876003811115610bea57610bea611bde565b6003811115610bfb57610bfb611bde565b81526020019081526020016000205490565b90506000610c1b86836112a5565b9050610c2787826112c6565b610c6860c96000886003811115610c4057610c40611bde565b6003811115610c5157610c51611bde565b815260200190815260200160002080546001019055565b5050600101610bbf565b5050505050565b600060ff602083901c16806003811115610b1057610b10611bde565b60006001600160e01b03198216637965db0b60e01b14806104375750610437825b60006001600160e01b031982166380ac58cd60e01b1480610ce757506001600160e01b03198216635b5e139f60e01b145b8061043757506301ffc9a760e01b6001600160e01b0319831614610437565b6000818152606760205260409020546001600160a01b0316610a235760405162461bcd60e51b8152602060048201526018602482015277115490cdcc8c4e881a5b9d985b1a59081d1bdad95b88125160421b604482015260640161056a565b600081815260696020526040902080546001600160a01b0319166001600160a01b0384169081179091558190610d9a826107df565b6001600160a01b03167f8c5be1e5ebec7d5bd14f71427d1e84f3dd0314c0f7b2291e5b200ac8c7c3b92560405160405180910390a45050565b600080610ddf836107df565b9050806001600160a01b0316846001600160a01b03161480610e2657506001600160a01b038082166000908152606a602090815260408083209388168352929052205460ff165b80610e4a5750836001600160a01b0316610e3f846104cf565b6001600160a01b0316145b949350505050565b826001600160a01b0316610e65826107df565b6001600160a01b031614610e8b5760405162461bcd60e51b815260040161056a90611cd2565b6001600160a01b038216610eed5760405162461bcd60e51b8152602060048201526024808201527f4552433732313a207472616e7366657220746f20746865207a65726f206164646044820152637265737360e01b606482015260840161056a565b826001600160a01b0316610f00826107df565b6001600160a01b031614610f265760405162461bcd60e51b815260040161056a90611cd2565b600081815260696020908152604080832080546001600160a01b03199081169091556001600160a01b0387811680865260688552838620805460001901905590871680865283862080546001019055868652606790945282852080549092168417909155905184937fddf252ad1be2c89b69c2b068fc378daa952ba7f163c4a11628f55a4df523b3ef91a4505050565b610a238133611451565b610fca8282610a26565b6106e05760008281526097602090815260408083206001600160a01b03851684529091529020805460ff191660011790556110023390565b6001600160a01b0316816001600160a01b0316837f2f8788117e7eff1d82e926ec794901d17c78024a50270940304540a733656f0d60405160405180910390a45050565b6110508282610a26565b156106e05760008281526097602090815260408083206001600160a01b0385168085529252808320805460ff1916905551339285917ff6391f5c32d9c69d2a47ea670b442974b53935d1edc7fd64eb21e047a839171b9190a45050565b600054610100900460ff166110d45760405162461bcd60e51b815260040161056a90611d17565b6106e082826114aa565b600054610100900460ff166111055760405162461bcd60e51b815260040161056a90611d17565b565b6106e08282610fc0565b816001600160a01b0316836001600160a01b0316036111725760405162461bcd60e51b815260206004820152601960248201527f4552433732313a20617070726f766520746f2063616c6c657200000000000000604482015260640161056a565b6001600160a01b038381166000818152606a6020908152604080832094871680845294825291829020805460ff191686151590811790915591519182527f17307eab39ab6107e8899845ad3d59bd9653f200f220920489ca2b5937696c31910160405180910390a3505050565b6111ea848484610e52565b6111f6848484846114ea565b610a9d5760405162461bcd60e51b815260040161056a90611d62565b6060600061121f836115eb565b600101905060008167ffffffffffffffff81111561123f5761123f611a51565b6040519080825280601f01601f191660200182016040528015611269576020820181803683370190505b5090508181016020015b600019016f181899199a1a9b1b9c1cb0b131b232b360811b600a86061a8153600a850494508461127357509392505050565b60008160208460038111156112bc576112bc611bde565b901b179392505050565b6001600160a01b03821661131c5760405162461bcd60e51b815260206004820181905260248201527f4552433732313a206d696e7420746f20746865207a65726f2061646472657373604482015260640161056a565b6000818152606760205260409020546001600160a01b0316156113815760405162461bcd60e51b815260206004820152601c60248201527f4552433732313a20746f6b656e20616c7265616479206d696e74656400000000604482015260640161056a565b6000818152606760205260409020546001600160a01b0316156113e65760405162461bcd60e51b815260206004820152601c60248201527f4552433732313a20746f6b656e20616c7265616479206d696e74656400000000604482015260640161056a565b6001600160a01b038216600081815260686020908152604080832080546001019055848352606790915280822080546001600160a01b0319168417905551839291907fddf252ad1be2c89b69c2b068fc378daa952ba7f163c4a11628f55a4df523b3ef908290a45050565b61145b8282610a26565b6106e057611468816116c3565b6114738360206116d5565b604051602001611484929190611db4565b60408051601f198184030181529082905262461bcd60e51b825261056a916004016118f4565b600054610100900460ff166114d15760405162461bcd60e51b815260040161056a90611d17565b60656114dd8382611e70565b50606661060b8282611e70565b60006001600160a01b0384163b156115e057604051630a85bd0160e11b81526001600160a01b0385169063150b7a029061152e903390899088908890600401611f2f565b6020604051808303816000875af1925050508015611569575060408051601f3d908101601f1916820190925261156691810190611f6c565b60015b6115c6573d808015611597576040519150601f19603f3d011682016040523d82523d6000602084013e61159c565b606091505b5080516000036115be5760405162461bcd60e51b815260040161056a90611d62565b805181602001fd5b6001600160e01b031916630a85bd0160e11b149050610e4a565b506001949350505050565b60008072184f03e93ff9f4daa797ed6e38ed64bf6a1f0160401b831061162a5772184f03e93ff9f4daa797ed6e38ed64bf6a1f0160401b830492506040015b6d04ee2d6d415b85acef81000000008310611656576d04ee2d6d415b85acef8100000000830492506020015b662386f26fc10000831061167457662386f26fc10000830492506010015b6305f5e100831061168c576305f5e100830492506008015b61271083106116a057612710830492506004015b606483106116b2576064830492506002015b600a83106104375760010192915050565b60606104376001600160a01b03831660145b606060006116e4836002611f9f565b6116ef906002611fb6565b67ffffffffffffffff81111561170757611707611a51565b6040519080825280601f01601f191660200182016040528015611731576020820181803683370190505b509050600360fc1b8160008151811061174c5761174c611fc9565b60200101906001600160f81b031916908160001a905350600f60fb1b8160018151811061177b5761177b611fc9565b60200101906001600160f81b031916908160001a905350600061179f846002611f9f565b6117aa906001611fb6565b90505b6001811115611822576f181899199a1a9b1b9c1cb0b131b232b360811b85600f16601081106117de576117de611fc9565b1a60f81b8282815181106117f4576117f4611fc9565b60200101906001600160f81b031916908160001a90535060049490941c9361181b81611fdf565b90506117ad565b508315610b105760405162461bcd60e51b815260206004820181905260248201527f537472696e67733a20686578206c656e67746820696e73756666696369656e74604482015260640161056a565b6001600160e01b031981168114610a2357600080fd5b60006020828403121561189957600080fd5b8135610b1081611871565b60005b838110156118bf5781810151838201526020016118a7565b50506000910152565b600081518084526118e08160208601602086016118a4565b601f01601f19169290920160200192915050565b602081526000610b1060208301846118c8565b60006020828403121561191957600080fd5b5035919050565b80356001600160a01b038116811461193757600080fd5b919050565b6000806040838503121561194f57600080fd5b61195883611920565b946020939093013593505050565b60008060006060848603121561197b57600080fd5b61198484611920565b925061199260208501611920565b929592945050506040919091013590565b600080604083850312156119b657600080fd5b823591506119c660208401611920565b90509250929050565b80356004811061193757600080fd5b600080604083850312156119f157600080fd5b611958836119cf565b600060208284031215611a0c57600080fd5b610b1082611920565b60008060408385031215611a2857600080fd5b611a3183611920565b915060208301358015158114611a4657600080fd5b809150509250929050565b634e487b7160e01b600052604160045260246000fd5b60008060008060808587031215611a7d57600080fd5b611a8685611920565b9350611a9460208601611920565b925060408501359150606085013567ffffffffffffffff811115611ab757600080fd5b8501601f81018713611ac857600080fd5b803567ffffffffffffffff811115611ae257611ae2611a51565b604051601f8201601f19908116603f0116810167ffffffffffffffff81118282101715611b1157611b11611a51565b604052818152828201602001891015611b2957600080fd5b8160208401602083013760006020838301015280935050505092959194509250565b600060208284031215611b5d57600080fd5b610b10826119cf565b600080600060608486031215611b7b57600080fd5b611b8484611920565b9250611b92602085016119cf565b9150604084013561ffff81168114611ba957600080fd5b809150509250925092565b60008060408385031215611bc757600080fd5b611bd083611920565b91506119c660208401611920565b634e487b7160e01b600052602160045260246000fd5b6020810160048310611c1657634e487b7160e01b600052602160045260246000fd5b91905290565b600181811c90821680611c3057607f821691505b602082108103611c5057634e487b7160e01b600052602260045260246000fd5b50919050565b6020808252602d908201527f4552433732313a2063616c6c6572206973206e6f7420746f6b656e206f776e6560408201526c1c881bdc88185c1c1c9bdd9959609a1b606082015260800190565b60008351611cb58184602088016118a4565b835190830190611cc98183602088016118a4565b01949350505050565b60208082526025908201527f4552433732313a207472616e736665722066726f6d20696e636f72726563742060408201526437bbb732b960d91b606082015260800190565b6020808252602b908201527f496e697469616c697a61626c653a20636f6e7472616374206973206e6f74206960408201526a6e697469616c697a696e6760a81b606082015260800190565b60208082526032908201527f4552433732313a207472616e7366657220746f206e6f6e20455243373231526560408201527131b2b4bb32b91034b6b83632b6b2b73a32b960711b606082015260800190565b7f416363657373436f6e74726f6c3a206163636f756e7420000000000000000000815260008351611dec8160178501602088016118a4565b7001034b99036b4b9b9b4b733903937b6329607d1b6017918401918201528351611e1d8160288401602088016118a4565b01602801949350505050565b601f82111561060b57806000526020600020601f840160051c81016020851015611e505750805b601f840160051c820191505b81811015610c725760008155600101611e5c565b815167ffffffffffffffff811115611e8a57611e8a611a51565b611e9e81611e988454611c1c565b84611e29565b6020601f821160018114611ed25760008315611eba5750848201515b600019600385901b1c1916600184901b178455610c72565b600084815260208120601f198516915b82811015611f025787850151825560209485019460019092019101611ee2565b5084821015611f205786840151600019600387901b60f8161c191681555b50505050600190811b01905550565b6001600160a01b0385811682528416602082015260408101839052608060608201819052600090611f62908301846118c8565b9695505050505050565b600060208284031215611f7e57600080fd5b8151610b1081611871565b634e487b7160e01b600052601160045260246000fd5b808202811582820484141761043757610437611f89565b8082018082111561043757610437611f89565b634e487b7160e01b600052603260045260246000fd5b600081611fee57611fee611f89565b50600019019056fea2646970667358221220cf9c1a26b901df7c8a260d420053e06a182cf75e6163d9bb57e5c034224833da64736f6c634300081c0033",
  "devdoc": {
    "events": {
      "Approval(address,address,uint256)": {
        "details": "Emitted when `owner` enables `approved` to manage the `tokenId` token."
      },
      "ApprovalForAll(address,address,bool)": {
        "details": "Emitted when `owner` enables or disables (`approved`) `operator` to manage all of its assets."
      },
      "Initialized(uint8)": {
        "details": "Triggered when the contract has been initialized or reinitialized."
      },
      "RoleAdminChanged(bytes32,bytes32,bytes32)": {
        "details": "Emitted when `newAdminRole` is set as ``role``'s admin role, replacing `previousAdminRole` `DEFAULT_ADMIN_ROLE` is the starting admin for all roles, despite {RoleAdminChanged} not being emitted signaling this. _Available since v3.1._"
      },
      "RoleGranted(bytes32,address,address)": {
        "details": "Emitted when `account` is granted `role`. `sender` is the account that originated the contract call, an admin role bearer except when using {AccessControl-_setupRole}."
      },
      "RoleRevoked(bytes32,address,address)": {
        "details": "Emitted when `account` is revoked `role`. `sender` is the account that originated the contract call:   - if using `revokeRole`, it is the admin role bearer   - if using `renounceRole`, it is the role bearer (i.e. `account`)"
      },
      "Transfer(address,address,uint256)": {
        "details": "Emitted when `tokenId` token is transferred from `from` to `to`."
      }
    },
    "kind": "dev",
    "methods": {
      "approve(address,uint256)": {
        "details": "See {IERC721-approve}."
      },
      "balanceOf(address)": {
        "details": "See {IERC721-balanceOf}."
      },
      "getApproved(uint256)": {
        "details": "See {IERC721-getApproved}."
      },
      "getRoleAdmin(bytes32)": {
        "details": "Returns the admin role that controls `role`. See {grantRole} and {revokeRole}. To change a role's admin, use {_setRoleAdmin}."
      },
      "grantRole(bytes32,address)": {
        "details": "Grants `role` to `account`. If `account` had not been already granted `role`, emits a {RoleGranted} event. Requirements: - the caller must have ``role``'s admin role. May emit a {RoleGranted} event."
      },
      "hasRole(bytes32,address)": {
        "details": "Returns `true` if `account` has been granted `role`."
      },
      "isApprovedForAll(address,address)": {
        "details": "See {IERC721-isApprovedForAll}."
      },
      "name()": {
        "details": "See {IERC721Metadata-name}."
      },
      "ownerOf(uint256)": {
        "details": "See {IERC721-ownerOf}."
      },
      "renounceRole(bytes32,address)": {
        "details": "Revokes `role` from the calling account. Roles are often managed via {grantRole} and {revokeRole}: this function's purpose is to provide a mechanism for accounts to lose their privileges if they are compromised (such as when a trusted device is misplaced). If the calling account had been revoked `role`, emits a {RoleRevoked} event. Requirements: - the caller must be `account`. May emit a {RoleRevoked} event."
      },
      "revokeRole(bytes32,address)": {
        "details": "Revokes `role` from `account`. If `account` had been granted `role`, emits a {RoleRevoked} event. Requirements: - the caller must have ``role``'s admin role. May emit a {RoleRevoked} event."
      },
      "safeTransferFrom(address,address,uint256)": {
        "details": "See {IERC721-safeTransferFrom}."
      },
      "safeTransferFrom(address,address,uint256,bytes)": {
        "details": "See {IERC721-safeTransferFrom}."
      },
      "setApprovalForAll(address,bool)": {
        "details": "See {IERC721-setApprovalForAll}."
      },
      "symbol()": {
        "details": "See {IERC721Metadata-symbol}."
      },
      "tokenURI(uint256)": {
        "details": "See {IERC721Metadata-tokenURI}."
      },
      "transferFrom(address,address,uint256)": {
        "details": "See {IERC721-transferFrom}."
      }
    },
    "version": 1
  },
  "userdoc": {
    "kind": "user",
    "methods": {},
    "version": 1
  },
  "storageLayout": {
    "storage": [
      {
        "astId": 416,
        "contract": "contracts/PeaqNFT.sol:PeaqNFT",
        "label": "_initialized",
        "offset": 0,
        "slot": "0",
        "type": "t_uint8"
      },
      {
        "astId": 419,
        "contract": "contracts/PeaqNFT.sol:PeaqNFT",
        "label": "_initializing",
        "offset": 1,
        "slot": "0",
        "type": "t_bool"
      },
      {
        "astId": 2072,
        "contract": "contracts/PeaqNFT.sol:PeaqNFT",
        "label": "__gap",
        "offset": 0,
        "slot": "1",
        "type": "t_array(t_uint256)50_storage"
      },
      {
        "astId": 2420,
        "contract": "contracts/PeaqNFT.sol:PeaqNFT",
        "label": "__gap",
        "offset": 0,
        "slot": "51",
        "type": "t_array(t_uint256)50_storage"
      },
      {
        "astId": 608,
        "contract": "contracts/PeaqNFT.sol:PeaqNFT",
        "label": "_name",
        "offset": 0,
        "slot": "101",
        "type": "t_string_storage"
      },
      {
        "astId": 610,
        "contract": "contracts/PeaqNFT.sol:PeaqNFT",
        "label": "_symbol",
        "offset": 0,
        "slot": "102",
        "type": "t_string_storage"
      },
      {
        "astId": 614,
        "contract": "contracts/PeaqNFT.sol:PeaqNFT",
        "label": "_owners",
        "offset": 0,
        "slot": "103",
        "type": "t_mapping(t_uint256,t_address)"
      },
      {
        "astId": 618,
        "contract": "contracts/PeaqNFT.sol:PeaqNFT",
        "label": "_balances",
        "offset": 0,
        "slot": "104",
        "type": "t_mapping(t_address,t_uint256)"
      },
      {
        "astId": 622,
        "contract": "contracts/PeaqNFT.sol:PeaqNFT",
        "label": "_tokenApprovals",
        "offset": 0,
        "slot": "105",
        "type": "t_mapping(t_uint256,t_address)"
      },
      {
        "astId": 628,
        "contract": "contracts/PeaqNFT.sol:PeaqNFT",
        "label": "_operatorApprovals",
        "offset": 0,
        "slot": "106",
        "type": "t_mapping(t_address,t_mapping(t_address,t_bool))"
      },
      {
        "astId": 1530,
        "contract": "contracts/PeaqNFT.sol:PeaqNFT",
        "label": "__gap",
        "offset": 0,
        "slot": "107",
        "type": "t_array(t_uint256)44_storage"
      },
      {
        "astId": 28,
        "contract": "contracts/PeaqNFT.sol:PeaqNFT",
        "label": "_roles",
        "offset": 0,
        "slot": "151",
        "type": "t_mapping(t_bytes32,t_struct(RoleData)23_storage)"
      },
      {
        "astId": 335,
        "contract": "contracts/PeaqNFT.sol:PeaqNFT",
        "label": "__gap",
        "offset": 0,
        "slot": "152",
        "type": "t_array(t_uint256)49_storage"
      },
      {
        "astId": 8408,
        "contract": "contracts/PeaqNFT.sol:PeaqNFT",
        "label": "_tokenTypeCounters",
        "offset": 0,
        "slot": "201",
        "type": "t_mapping(t_enum(NftType)8383,t_struct(Counter)2079_storage)"
      },
      {
        "astId": 8413,
        "contract": "contracts/PeaqNFT.sol:PeaqNFT",
        "label": "_shareRevenuePercentages",
        "offset": 0,
        "slot": "202",
        "type": "t_mapping(t_enum(NftType)8383,t_uint256)"
      }
    ],
    "types": {
      "t_address": {
        "encoding": "inplace",
        "label": "address",
        "numberOfBytes": "20"
      },
      "t_array(t_uint256)44_storage": {
        "base": "t_uint256",
        "encoding": "inplace",
        "label": "uint256[44]",
        "numberOfBytes": "1408"
      },
      "t_array(t_uint256)49_storage": {
        "base": "t_uint256",
        "encoding": "inplace",
        "label": "uint256[49]",
        "numberOfBytes": "1568"
      },
      "t_array(t_uint256)50_storage": {
        "base": "t_uint256",
        "encoding": "inplace",
        "label": "uint256[50]",
        "numberOfBytes": "1600"
      },
      "t_bool": {
        "encoding": "inplace",
        "label": "bool",
        "numberOfBytes": "1"
      },
      "t_bytes32": {
        "encoding": "inplace",
        "label": "bytes32",
        "numberOfBytes": "32"
      },
      "t_enum(NftType)8383": {
        "encoding": "inplace",
        "label": "enum NftTypes.NftType",
        "numberOfBytes": "1"
      },
      "t_mapping(t_address,t_bool)": {
        "encoding": "mapping",
        "key": "t_address",
        "label": "mapping(address => bool)",
        "numberOfBytes": "32",
        "value": "t_bool"
      },
      "t_mapping(t_address,t_mapping(t_address,t_bool))": {
        "encoding": "mapping",
        "key": "t_address",
        "label": "mapping(address => mapping(address => bool))",
        "numberOfBytes": "32",
        "value": "t_mapping(t_address,t_bool)"
      },
      "t_mapping(t_address,t_uint256)": {
        "encoding": "mapping",
        "key": "t_address",
        "label": "mapping(address => uint256)",
        "numberOfBytes": "32",
        "value": "t_uint256"
      },
      "t_mapping(t_bytes32,t_struct(RoleData)23_storage)": {
        "encoding": "mapping",
        "key": "t_bytes32",
        "label": "mapping(bytes32 => struct AccessControlUpgradeable.RoleData)",
        "numberOfBytes": "32",
        "value": "t_struct(RoleData)23_storage"
      },
      "t_mapping(t_enum(NftType)8383,t_struct(Counter)2079_storage)": {
        "encoding": "mapping",
        "key": "t_enum(NftType)8383",
        "label": "mapping(enum NftTypes.NftType => struct CountersUpgradeable.Counter)",
        "numberOfBytes": "32",
        "value": "t_struct(Counter)2079_storage"
      },
      "t_mapping(t_enum(NftType)8383,t_uint256)": {
        "encoding": "mapping",
        "key": "t_enum(NftType)8383",
        "label": "mapping(enum NftTypes.NftType => uint256)",
        "numberOfBytes": "32",
        "value": "t_uint256"
      },
      "t_mapping(t_uint256,t_address)": {
        "encoding": "mapping",
        "key": "t_uint256",
        "label": "mapping(uint256 => address)",
        "numberOfBytes": "32",
        "value": "t_address"
      },
      "t_string_storage": {
        "encoding": "bytes",
        "label": "string",
        "numberOfBytes": "32"
      },
      "t_struct(Counter)2079_storage": {
        "encoding": "inplace",
        "label": "struct CountersUpgradeable.Counter",
        "members": [
          {
            "astId": 2078,
            "contract": "contracts/PeaqNFT.sol:PeaqNFT",
            "label": "_value",
            "offset": 0,
            "slot": "0",
            "type": "t_uint256"
          }
        ],
        "numberOfBytes": "32"
      },
      "t_struct(RoleData)23_storage": {
        "encoding": "inplace",
        "label": "struct AccessControlUpgradeable.RoleData",
        "members": [
          {
            "astId": 20,
            "contract": "contracts/PeaqNFT.sol:PeaqNFT",
            "label": "members",
            "offset": 0,
            "slot": "0",
            "type": "t_mapping(t_address,t_bool)"
          },
          {
            "astId": 22,
            "contract": "contracts/PeaqNFT.sol:PeaqNFT",
            "label": "adminRole",
            "offset": 0,
            "slot": "1",
            "type": "t_bytes32"
          }
        ],
        "numberOfBytes": "64"
      },
      "t_uint256": {
        "encoding": "inplace",
        "label": "uint256",
        "numberOfBytes": "32"
      },
      "t_uint8": {
        "encoding": "inplace",
        "label": "uint8",
        "numberOfBytes": "1"
      }
    }
  }
}